{
  "contractName": "Election",
  "abi": [
    {
      "inputs": [],
      "payable": false,
      "stateMutability": "nonpayable",
      "type": "constructor"
    },
    {
      "constant": true,
      "inputs": [],
      "name": "candidate_count",
      "outputs": [
        {
          "internalType": "uint256",
          "name": "",
          "type": "uint256"
        }
      ],
      "payable": false,
      "stateMutability": "view",
      "type": "function"
    },
    {
      "constant": true,
      "inputs": [],
      "name": "flag",
      "outputs": [
        {
          "internalType": "bool",
          "name": "",
          "type": "bool"
        }
      ],
      "payable": false,
      "stateMutability": "view",
      "type": "function"
    },
    {
      "constant": true,
      "inputs": [
        {
          "internalType": "uint256",
          "name": "",
          "type": "uint256"
        }
      ],
      "name": "list_of_candidates",
      "outputs": [
        {
          "internalType": "uint256",
          "name": "c_id",
          "type": "uint256"
        },
        {
          "internalType": "uint256",
          "name": "c_votecount",
          "type": "uint256"
        },
        {
          "internalType": "string",
          "name": "c_name",
          "type": "string"
        }
      ],
      "payable": false,
      "stateMutability": "view",
      "type": "function"
    },
    {
      "constant": true,
      "inputs": [
        {
          "internalType": "address",
          "name": "",
          "type": "address"
        }
      ],
      "name": "list_of_voters",
      "outputs": [
        {
          "internalType": "bool",
          "name": "",
          "type": "bool"
        }
      ],
      "payable": false,
      "stateMutability": "view",
      "type": "function"
    },
    {
      "constant": false,
      "inputs": [
        {
          "internalType": "string",
          "name": "name",
          "type": "string"
        }
      ],
      "name": "addCandidate",
      "outputs": [],
      "payable": false,
      "stateMutability": "nonpayable",
      "type": "function"
    },
    {
      "constant": false,
      "inputs": [
        {
          "internalType": "uint256",
          "name": "id",
          "type": "uint256"
        }
      ],
      "name": "voteCandidate",
      "outputs": [],
      "payable": false,
      "stateMutability": "nonpayable",
      "type": "function"
    },
    {
      "constant": false,
      "inputs": [],
      "name": "toggleFlag",
      "outputs": [],
      "payable": false,
      "stateMutability": "nonpayable",
      "type": "function"
    }
  ],
  "bytecode": "0x608060405234801561001057600080fd5b5060008060006101000a81548160ff0219169083151502179055506106368061003a6000396000f3fe608060405234801561001057600080fd5b506004361061007c5760003560e01c80634b1c4c291161005b5780634b1c4c29146101a2578063890eba68146101c05780638c08a4dc146101e2578063e90ec184146102105761007c565b8062c0096e14610081578063310b18321461008b578063462e91ec146100e7575b600080fd5b6100896102c5565b005b6100cd600480360360208110156100a157600080fd5b81019080803573ffffffffffffffffffffffffffffffffffffffff1690602001909291905050506102ef565b604051808215151515815260200191505060405180910390f35b6101a0600480360360208110156100fd57600080fd5b810190808035906020019064010000000081111561011a57600080fd5b82018360208201111561012c57600080fd5b8035906020019184600183028401116401000000008311171561014e57600080fd5b91908080601f016020809104026020016040519081016040528093929190818152602001838380828437600081840152601f19601f82011690508083019250505050505050919291929050505061030f565b005b6101aa610389565b6040518082815260200191505060405180910390f35b6101c861038f565b604051808215151515815260200191505060405180910390f35b61020e600480360360208110156101f857600080fd5b81019080803590602001909291905050506103a1565b005b61023c6004803603602081101561022657600080fd5b810190808035906020019092919050505061049a565b6040518084815260200183815260200180602001828103825283818151815260200191508051906020019080838360005b8381101561028857808201518184015260208101905061026d565b50505050905090810190601f1680156102b55780820380516001836020036101000a031916815260200191505b5094505050505060405180910390f35b6000809054906101000a900460ff16156000806101000a81548160ff021916908315150217905550565b60036020528060005260406000206000915054906101000a900460ff1681565b600180600082825401925050819055506040518060600160405280600154815260200160008152602001828152506002600060015481526020019081526020016000206000820151816000015560208201518160010155604082015181600201908051906020019061038292919061055c565b5090505050565b60015481565b6000809054906101000a900460ff1681565b60001515600360003373ffffffffffffffffffffffffffffffffffffffff1673ffffffffffffffffffffffffffffffffffffffff16815260200190815260200160002060009054906101000a900460ff161515146103fe57600080fd5b6001548111158015610411575060018110155b61041a57600080fd5b600160026000838152602001908152602001600020600101600082825401925050819055506001600360003373ffffffffffffffffffffffffffffffffffffffff1673ffffffffffffffffffffffffffffffffffffffff16815260200190815260200160002060006101000a81548160ff02191690831515021790555050565b6002602052806000526040600020600091509050806000015490806001015490806002018054600181600116156101000203166002900480601f0160208091040260200160405190810160405280929190818152602001828054600181600116156101000203166002900480156105525780601f1061052757610100808354040283529160200191610552565b820191906000526020600020905b81548152906001019060200180831161053557829003601f168201915b5050505050905083565b828054600181600116156101000203166002900490600052602060002090601f016020900481019282601f1061059d57805160ff19168380011785556105cb565b828001600101855582156105cb579182015b828111156105ca5782518255916020019190600101906105af565b5b5090506105d891906105dc565b5090565b6105fe91905b808211156105fa5760008160009055506001016105e2565b5090565b9056fea265627a7a723158202de98fe77cbb3070feb00632c43709d04a1fd9e1ee2a90689073a15d15aa6ef264736f6c63430005100032",
  "source": "pragma solidity >=0.5.16;\r\n\r\ncontract Election{\r\n    bool public flag;\r\n    struct Candidate{\r\n        uint c_id;\r\n        uint c_votecount;\r\n        string c_name;\r\n\r\n    }\r\n    uint public candidate_count;\r\n    mapping(uint=>Candidate) public list_of_candidates;\r\n    mapping(address=>bool) public list_of_voters;\r\n    constructor () public{\r\n        flag=false;\r\n    }\r\n    function addCandidate(string memory name) public {\r\n        candidate_count+=1;\r\n        list_of_candidates[candidate_count]=Candidate(candidate_count,0,name);\r\n    }\r\n\r\n    function voteCandidate(uint id) public {\r\n        require(list_of_voters[msg.sender]==false);\r\n        require(id<=candidate_count && id >=1);\r\n        list_of_candidates[id].c_votecount+=1 ;\r\n        list_of_voters[msg.sender]=true;\r\n    }\r\n    function toggleFlag() public{\r\n        flag=!flag;\r\n    }\r\n}",
  "sourcePath": "C:\\Election\\contracts\\Election.sol",
  "compiler": {
    "name": "solc",
    "version": "0.5.16+commit.9c3226ce.Emscripten.clang"
  },
  "schemaVersion": "3.4.3",
  "updatedAt": "2021-12-13T22:35:42.949Z",
  "networkType": "ethereum",
  "devdoc": {
    "methods": {}
  },
  "userdoc": {
    "methods": {}
  }
}